:1000000000800010391E0000691E00006B1E0000F9
:100010006D1E00006F1E0000711E00000000000039
:10002000000000000000000000000000731E00003F
:10003000751E000000000000771E0000791E000001
:100040007B1E00007B1E00007B1E00007B1E00004C
:100050007B1E00007B1E00007B1E00007B1E00003C
:100060007B1E00007B1E00007B1E00007B1E00002C
:100070007B1E00007B1E00007B1E00007B1E00001C
:100080007B1E00007B1E00007B1E00007B1E00000C
:100090007B1E00007B1E00007B1E00007B1E0000FC
:1000A0007B1E00007B1E00007B1E00007B1E0000EC
:1000B0007B1E00007B1E00007B1E00007B1E0000DC
:1000C0007B1E00007B1E00007B1E0000044B0548C9
:1000D0001B1A062B02D9044B03B11847704700BF07
:1000E0004B010010480100100000000005490648BF
:1000F000091A891001EBD171491002D0034B03B1E9
:100100001847704748010010480100100000000027
:1001100010B5064C237843B9FFF7D8FF044B13B151
:100120000448AFF300800123237010BD4801001084
:10013000000000005450000008B5084B1BB10849EE
:100140000848AFF300800848036813B9BDE80840C9
:10015000CCE7064B002BF9D09847F7E700000000EA
:100160004C01001054500000480100100000000035
:10017000704700BF10B50446064B403003F118012C
:1001800003F14C0223602164626401F02DFE2046DD
:1001900010BD00BFF44D0000A0F14000EAE700BF31
:1001A000A0F14400E6E700BF10B5044601F06BFE85
:1001B000204610BD00B5194887B000F0FFF9184976
:1001C000184801F023FE154800F004F9134800F028
:1001D0008FF901F0BFFF02460B461248124901F0A9
:1001E00015FE0E4800F0C8F901F0B4FF02460B46B8
:1001F0000C480E4901F00AFE4FF07E5000F09AFBC9
:1002000003A90B4800F0A6F80599049B0091039AF6
:100210000849044801F0FAFDD5E700BFD8010010F5
:1002200084490000A401001094490000A84900007E
:10023000BC010010BC49000010B50446074B40301B
:1002400003F1180103F14C0223602164626401F0A0
:10025000CBFD204601F017FE204610BDF44D0000F6
:10026000A0F14000E8E700BFA0F14400E4E700BFD0
:10027000154B70B5154D0024184615491C605C607F
:100280009C60DC601C615C61124E00F071FA2846D3
:10029000114A124901F01EFB114A1249124800F09E
:1002A00031F823463046114A114901F031FD3046FC
:1002B000104A114901F0E2FD2946BDE870400F4A9D
:1002C0000F4800F071B800BF1002001028020010A3
:1002D00032C009206401001001C0092000C00920BB
:1002E0000BC009200AC00920BC01001003C009206E
:1002F00002C00920C80000107501000045C0092097
:10030000D8010010F0B5044600F1140583B028466A
:1003100001F0E0FA28460E4901F0ECFA2027002609
:100320000F23637027702246284600960223D221AD
:1003300001F0EAFA232367702846009622462370CC
:10034000D221022301F0E0FA204603B0F0BD00BF45
:10035000801A0600F0B506460446A82306F8143BAA
:1003600083B000270D462246009730460123D22154
:1003700001F0CAFA0097224630460623D22101F046
:10038000E5FAA278E778237966796078217842EAFD
:10039000072243EA062341EA002112B21BB209B246
:1003A00085E80E0003B0F0BD70B504460E4600258A
:1003B000056045608560C56005614561114600F0D6
:1003C000D7F9C023E662256384F83450638320465E
:1003D00070BD00BF70B50446C3684268002584B094
:1003E0001A603B48257600F0A5FA1226B4F91A10D7
:1003F000E06A0223009502AA01258DF808608DF8B5
:10040000095001F081FA94F8343033B1002857D103
:10041000206B3049403001F0F9FC2F48002500F0F6
:1004200089FAB4F91A10E06A012302AA00958DF83E
:10043000085001F069FA94F8343033B1002837D10C
:10044000206B2649403001F0E1FC0023B4F91A107A
:10045000E06A03AA0093042301F078FA94F8343098
:10046000CBB1E0B9206B1E49403001F0CFFC9DF8C4
:100470000E009DF80F209DF80C109DF80D3002EB3A
:10048000002203EB0123C2F38912C3F389136285AF
:10049000238504B070BD0028E9D004B070BD236B83
:1004A0000246104903F1400001F0B0FC04B070BDF9
:1004B000236B02460C4903F1400001F0A7FCC4E79E
:1004C000236B0246094903F1400001F09FFCA4E7B9
:1004D0006F12833ADC4900000AD7233C304A0000FF
:1004E000904A0000BC4A0000604A0000044A000034
:1004F000B0F91E20038DB0F92410920303FB0122F2
:1005000010B5B0F92210448D9213D20204FB0122DF
:10051000B0F91C10D212890203FB0213B0F920209B
:1005200023F47F73521023F0030304FB023390F88B
:100530003420C3F34F337AB91CB2204601F0F8FDE2
:1005400009A3D3E9002301F059FE0022084B01F072
:10055000A3FC02F065F810BD006B1CB222460549F1
:10056000403001F053FCE8E7555451451555E43F40
:1005700000407F40EC4A000008B5408D01F0D8FDF6
:1005800009A3D3E9002301F085FC09A3D3E90023E3
:1005900001F05EFF0022084B01F07EFC02F040F803
:1005A00008BD00BFAFF300800000000000207F40C6
:1005B00066666666666615C000003940F0B504469A
:1005C000C3684268002587B01A602248257600F08B
:1005D000B1F906AA042302F8103DB4F91A10E06A32
:1005E0000123009501F090F90C23B4F91A10E06A88
:1005F0000DEB0302009501F0A9F948BB9DF80F30FF
:100600009DF80E609DF810709DF8122003EB0626F1
:100610009DF811509DF815309DF813009DF81410A9
:1006200005EB072500EB022003EB01219DF816E006
:100630009DF817209DF80C709DF80D3002EB0E22EE
:1006400003EB0723E68325846084A184E284A383EB
:1006500007B0F0BD6F12833A074A084808B5002179
:10066000121A02F03FFDAFF3008002F085FC01F0AA
:10067000C3FA02F0AFF900BF4004001048010010B7
:10068000022801DC0120704701F07EBAEFF30583F8
:1006900003B100BE02F0E2BCEFF3058303B100BE7C
:1006A00002F0E4BC08B5012002F094F908B5FFF7A8
:1006B000F9FF00BF00B599B072B61749684600F05F
:1006C00057F806A8154900F053F80CA8144900F093
:1006D0004FF812A8134900F04BF8039A01990A9BAE
:1006E00011600799109A19600D99159B1160139A62
:1006F00096201A6000F02AF9049A0199099B11606A
:1007000007990F9A19600D99169B1160139A9620FC
:100710001A6000F01BF9E0E732C0092034C009205C
:1007200035C0092037C009200FB400B5064A83B090
:1007300004AB53F8041B10681A46C068019302F01A
:10074000B5FE012002F046F93401001038B50D461F
:10075000044600F07BF9013509D02046002100F065
:1007600097F92046BDE83840032100F08DB938BD27
:1007700038B50D46044600F069F901350CD02369FF
:100780006268204601211A6000F082F92046BDE827
:100790003840022100F078B938BD00BF70B50D4671
:1007A0001646044600F052F9013511D066B92369A6
:1007B00062681A602046012100F06AF92046BDE80F
:1007C0007040022100F060B9E36862681A60F1E7E6
:1007D00070BD00BF00F06EB8431C1CD00B685A1CE3
:1007E0001AD0984210B5044602D10AE09C4208D0C3
:1007F00051F80C3F5A1CF9D10948BDE81040FFF7E9
:1008000093BF2046896800F0D5FA2046BDE8104025
:10081000022100F0EBBA70470148FFF785BF00BF27
:10082000204B000088420AD0421C09D0013106D07A
:1008300008B50448FFF778FF4FF0FF3008BD704758
:1008400008467047344B00000B685A1C08D0984289
:1008500002D107E0834205D051F80C3F5A1CF9D170
:100860001846704748687047421C0ED008B50B68A0
:100870005A1C04D10AE051F80C3F5A1C06D0984289
:10088000F9D14868411C01D008BD70470248FFF704
:100890004BFF4FF0FF3008BD484B000030B585B02E
:1008A00018246D4620462946ABBE0446204605B0B6
:1008B00030BD00BF024B186800F00100704700BF58
:1008C000F0ED00E0036870B5DB68054698476B689B
:1008D0005B6883B12A681C6853689847201A00280F
:1008E0006A680DDC50681168836853600029F0D095
:1008F00040688847EBE72B68BDE870409B68184765
:100900002B6852681B691068BDE87040184700BF2B
:100910000148FFF7D7BF00BF9C4B000038B5054624
:1009200000F0B0FE044600F0ADFE001BA842FAD372
:1009300038BD00BF08B5044901F0C2FE02F010F84E
:10094000BDE80840FFF7EABF002474494FF47A730A
:1009500003FB00F0FFF7E2BF0C4B30B49D689A68D0
:100960002B46B2F1805F0CD2094AC43553F8044BD0
:10097000AB4242F8044FF9D14FF080521346034C7A
:10098000A260103043F8201030BC704700ED00E04A
:10099000FCFFFF0F2B4A2023F0B4C2F8A031D2F89D
:1009A000A031980645D4274B002519460124AA20DA
:1009B000552202270B26C3F80471C3F8A851C3F8C7
:1009C000AC51C3F80C41C3F88460C3F88C00C3F881
:1009D0008C20C3F88040C3F88C00C3F88C20D1F879
:1009E0008830184A5B01FAD511460324AA20552302
:1009F000C2F88040C2F88C00C2F88C30D1F8883040
:100A0000104A13F0407FF9D00F4900230520C2F8A7
:100A10000801C2F8C410C2F8C8311368F0BC23F44E
:100A2000704323F03A0343F4405343F03A03136016
:100A30007047D2F8A0315906B5D4D2F8A031590682
:100A4000F7D5B0E700C00F40DE8728044A1C0160DC
:100A500018D038B50C4605460021204600F0AAF90A
:100A600024F01F0104F01F020123934001F1180438
:100A700001F11C0001F11402A9606B60EC602861B7
:100A80006A6138BD704700BF006800F0AFB900BFB1
:100A900041B1012905D18268436811680B43136095
:100AA0007047704782684168136823EA0103136046
:100AB000704700BFF8B50D4606462549284614463E
:100AC000FFF7D2FE234907462046FFF7CDFE014639
:100AD0003846FFF7A7FE204B0246984230602ED0E2
:100AE00003F58823984222D0A3F50423984216D018
:100AF0001A4B1B491B683C271B0AA1FB031340260A
:100B00001B09536128461361114997611660FFF76D
:100B100063FE2046BDE8F8400E49FFF75DBE11496F
:100B2000D1F8C43043F08003C1F8C430E0E70D4988
:100B3000D1F8C43043F08063C1F8C430D8E7094924
:100B4000D1F8C43043F40023C1F8C430D0E700BF6B
:100B5000A44B0000E04B000000C00540CC0000109A
:100B6000598B4F0100C00F40044B49001B680268BD
:100B70009B08B3FBF1F1516111617047CC0000108B
:100B80002DE9F04304683C2507462420A5614E4D1D
:100B9000206001E0013D02D026683607FAD5606882
:100BA00020251028A56110D008280ED01023082277
:100BB0002360454BA26101E0013B02D02268D506CB
:100BC000FAD46FF00100BDE8F08341F00101082084
:100BD000A1603D49A06101E0013902D025682807E4
:100BE000FAD5616840290ED0102308222360364BC5
:100BF000A26101E0013B02D02268D606FAD44FF090
:100C0000FF30BDE8F083581E002859DD844602F10C
:100C1000FF3E00264FF004094FF00808C4F800908A
:100C20002949C4F8188001E0013902D025682D0750
:100C3000FAD5A5686168502921D101360EF8015F07
:100C400086423C68EAD108210425A561A1611E49BC
:100C500001E0013902D025682E07FAD5A568616840
:100C600058291AD0102308222360174BA26101E0F3
:100C7000013B10D02268D506FAD4BDE8F0831023DA
:100C800008222360104BA26101E0013B02D02268E0
:100C9000D706FAD43046BDE8F08302F80C50079A24
:100CA0005AB13868102208210260074A816101E0C8
:100CB000013A02D00168C906FAD41846BDE8F083AB
:100CC0004FF0000CBFE700BFA186010070B40468BC
:100CD0003C252420A561364D206001E0013D02D075
:100CE00026683007FAD5606820251028A56110D045
:100CF00008280ED01023082223602D4BA26101E0AA
:100D0000013B02D02268D606FAD46FF0010070BC15
:100D1000704701F0FE010820A1602549A06101E0B3
:100D2000013902D025682D07FAD5616818290ED03F
:100D30001023082223601E4BA26101E0013B02D078
:100D40002268D006FAD44FF0FF3070BC7047002BF9
:100D500013DD551E0020082615F8011F144AA16056
:100D6000A66101E0013A02D021680907FAD562685C
:100D7000282A11D101308342EED1039A52B11022B8
:100D8000082122600A4AA16101E0013A02D02168EB
:100D9000C906FAD41846BAE7102308222360044B88
:100DA000A26101E0013BB2D02268D506FAD4AEE7D9
:100DB000A186010000F16040A0F51C2003099B0002
:100DC00003F1804303F53033400010B400F01E00FF
:100DD0001C680322824024EA02021A601A688140D9
:100DE00041EA0200186010BC704700BF00F160408B
:100DF000A0F51C2043099B0003F1804303F5303329
:100E000030B400F01F029C6EC1F3800505FA02F2B7
:100E100024EA02049C669C6E22439A669DB90309EB
:100E20009B0003F1804303F5303340001C6C00F05D
:100E30001E000322824024EA02021A641A6C01FA9C
:100E400000F01043186430BC704700BF154B996820
:100E5000C1F34201012918D0022914D1124A516F5D
:100E6000013106D0D2F88010906F086092F8A61079
:100E700089B1106F0C4B38B193F8A63023B10B4BEE
:100E800000211B68184770477047074B186F38B12F
:100E9000064B1B681847596821F001015960E8E7C3
:100EA000704700BF00800940400200103C02001063
:100EB000F8B5294C0368A34247D03FDD274CA34235
:100EC00029D004F58044A34242D1254D082632BBE7
:100ED00001290BD04268234CC2EBC20204EBC202D0
:100EE00092F8364092F83520D44213D1B1FA81F20B
:100EF0005D68012404FA01F125EA010159600368E3
:100F000052095B6804FA02F21A4203D1164BB4404C
:100F1000C3F88040F8BD154D0726002AD8D0586880
:100F2000012707FA01F2024374B25A6029462046AB
:100F3000FFF712FD0C4BA7401F60F8BDA4F58044DD
:100F4000A34205D10A4D0526C1E70A4D0626BEE794
:100F500000252E46BBE700BF00000140008009408D
:100F6000790F00004002001000E100E04D0E00008B
:100F7000E50F000045100000174B9968C1F34201CE
:100F800001291BD0022917D1144AD2F8AC10013123
:100F900007D0D2F8B810D2F8B000086092F8DE108E
:100FA00099B1D2F8A8000D4B38B193F8DE3023B1D7
:100FB0000B4B00211B68184770477047074BD3F84D
:100FC000A80038B1064B1B681847596821F0010189
:100FD0005960E6E7704700BF00C0094040020010BA
:100FE0003C020010144B9968C1F34201012917D04B
:100FF000022913D1114A5168013105D01169906855
:10100000086092F8361089B110680C4B38B193F82B
:10101000363023B10A4B00211B68184770477047D0
:10102000064B186838B1064B1B681847596821F001
:1010300001015960E8E7704700C00040400200101D
:101040003C020010144B9968C1F34201012917D0EA
:10105000022913D1114AD16B013105D0916C106C6A
:10106000086092F86E1089B1906B0C4B38B193F810
:101070006E3023B10A4B00211B6818477047704738
:10108000064B986B38B1064B1B681847596821F01E
:1010900001015960E8E7704700000140400200107C
:1010A0003C0200102DE9F04F02686E4B89B09A4265
:1010B0000790069200F0C88040F3B4806A4B06980F
:1010C000984272D003F58043984240F09D80674B70
:1010D000D3F8AC2122F44022C3F8AC21D3F8AC21E0
:1010E00042F48022C3F8AC21614A0B011268B2FBC2
:1010F000F3F003FB1023039280B2002B00F09080EA
:10110000039B4FF001085A009C009446A246C34638
:101110008E46994600230592049400900291019313
:1011200000242546029E5FFA88F7BCF1000FB5BF88
:10113000BCFBF6F0BAFBF6F0000940090130C0F341
:101140004F0008EB040200283DD00CB101283BD031
:10115000034603FB02F3DB00B9FBF3F30133C1EBFE
:101160005303002BB8BF5B42734505DA994230D078
:101170009E46BB468DE821000134E5B2AF420E44E5
:10118000D3D8039B08F101089944059BB8F1100FCF
:101190009C44049B9A44029B0B440293C0D1019B44
:1011A000009843EA0B15EDB216E0304BD3F8AC21B2
:1011B00022F44032C3F8AC21D3F8AC2142F480329F
:1011C000C3F8AC2190E714B102200346C1E7012027
:1011D000BEE745EA0715EDB20699C0F307220B7B7F
:1011E000C0B243F080030B7307990B681A710B6848
:1011F00018700B6883F828500A68137B03F07F038C
:10120000137309B0BDE8F08F194A0B011268B2FBE5
:10121000F3F003FB1023039280B2002B7FF470AF36
:101220001025D9E7A3F580439A42EDD10F4BD3F8AF
:10123000A82122F0C002C3F8A821D3F8A82142F0C7
:101240004002C3F8A8214FE7084BD3F8A82122F4A5
:101250004072C3F8A821D3F8A82142F48072C3F8E1
:10126000A82141E7000001400080094000C00F4074
:10127000CC000010436810B40448054CC3EBC30312
:1012800044F83320016010BC704700BF3C020010DE
:10129000400200100268137DDB07FCD54368094952
:1012A000C3EBC30301EBC303596810780131C0B22B
:1012B00006D059699B680B60536843F00103536083
:1012C000704700BF400200104368154AC3EBC303D8
:1012D000DB00D11810B4CC6901340FD00B460A6B77
:1012E0001C335B6812681A4205D1036810BC187D74
:1012F000C0F380107047002010BC704703681B7D4E
:101300009B0607D491F8340010BC0F288CBF002036
:1013100001207047002381F83430012010BC704751
:101320004002001038B504460D462046FFF7CCFFBA
:101330000028FAD02368EDB21D706368054AC3EB3C
:10134000C30302EBC30393F83420013283F8342043
:1013500038BD00BF400200102DE9F04F054644485B
:101360002C6883B084420F4691469A461DD06E6821
:1013700000243246DFF804B14FEAC608C2EBC201CE
:10138000C6EB08000BEBC00000220BEBC1014FF0D5
:10139000FF3381F83520C361436011462846FFF7CB
:1013A00087FD4FB903B0BDE8F08F237C6E6803F072
:1013B0003F0323746A68DDE72E494846FFF744FA85
:1013C0002D4901905046FFF73FFABA1E012A30D945
:1013D000012FE7D1B9F1FF3FE4D0254A019B2968ED
:1013E0000720934208720BD154B14846237C21490F
:1013F00043F04003237403B0BDE8F04FFFF7ECB9AE
:10140000C6EB08060BEBC600494604300022FFF786
:10141000C5F96A680124C2EBC2020BEBC20328467D
:101420002246002183F8354003B0BDE8F04FFFF7B6
:101430003FBDBAF1FF3F0AD00D4A90420DD0C6EB36
:1014400008000BEBC00051461C30FFF77FF9032F5B
:10145000A8D1B9F1FF3FC0D1A4E7002CEFD0227C86
:10146000504642F0800222740349FFF7B5F9EEE7D7
:10147000000001401C4C0000184D0000400200100C
:101480002DE9F0410F460546594938461646FFF703
:10149000EBF9584904463046FFF7E6F90146204685
:1014A000FFF7C0F9544B0446984228607FD06FD9AB
:1014B000524B98424BD003F58043984206D1504A94
:1014C000D2F8C43043F00073C2F8C4300123237251
:1014D0002B684FF00008C3F804804FF416512846DB
:1014E000FFF7E0FD2B6803221A7341493846FFF7E6
:1014F00073F940493046FFF76FF97A1C03D0414633
:101500003846FFF773FC731C03D030460021FFF709
:101510006DFC394B9C4247D021D9384B9C4263D05B
:1015200003F580439C424AD103236B60354CC3EBE7
:10153000C3034FF0FF3604EBC3042846334632465C
:101540006660E6610021BDE8F041FFF705BF2C4A67
:10155000D2F8C43043F08073C2F8C430B6E7A3F5C4
:1015600080439C422BD1274E4FF0FF34002169600D
:101570002346224628467460F461FFF7EDFE224BB5
:1015800001221A6028686968204B03C3BDE8F08116
:10159000A3F58043984299D1194AD2F8C43043F058
:1015A0000803C2F8C43091E701236B60BEE7144A18
:1015B000D2F8C43043F01003C2F8C43086E76E6836
:1015C000104BC6EBC6064FF0FF3703EBC6063A4694
:1015D0003B46002128467760F761FFF7BDFE0C4BC4
:1015E0009C42CCD0BDE8F08102236B609EE700BF37
:1015F000AC4C0000404C000000000140008009405D
:1016000000C00F40400200103802001034040010E7
:1016100000C0004038B51049104B01241C60D1F8BF
:10162000C4300F4A43F400030E480025C1F8C4300B
:10163000156703680C480221A0FB03031B0D013B47
:1016400051600420D36009495460FFF785F9084BC5
:1016500010221A6038BD00BF00C00F4020030010E8
:1016600000400940CC00001083DE1B43110900003C
:1016700000E100E0024B1B6803B17047FFF7CABFEF
:101680002003001008B5044B1B680BB9FFF7C2FF1D
:10169000024B986808BD00BF2003001000400940BD
:1016A000034B98615A6942F001025A61704700BFCA
:1016B00000400940024A536923F001035361704717
:1016C00000400940014B01221A6070470040094068
:1016D000094A8368026053B1084B1A68904201D1ED
:1016E00006E01A4653689842FBD14368536070473E
:1016F00042681A60704700BF444D00002403001088
:101700000C4A836810B50446026053B10A4B1A684C
:10171000904201D10AE01A4653689C42FBD16368AB
:101720005360204600F0AFFB204610BD42681A60AF
:10173000F7E700BF444D00002403001010B4064C2E
:101740000023027381600460436019B1034B1A687F
:101750001860426010BC7047444D00002403001024
:10176000F8B50B4B1C688CB107460E46A56855B101
:1017700032463946284602F01EFB20B9284602F0C0
:1017800012FB864202D06468002CEFD12046F8BDDF
:1017900024030010007B7047036870B501221B69A9
:1017A000002104469847064601300ED023680222E5
:1017B0001B690021204698470546236831461B696E
:1017C000204600229847284670BD304670BD00BFB5
:1017D00010B50446064B002240F8043BFFF7AEFF6D
:1017E000044B204603F10802343384E80C0010BD9A
:1017F000A84D00004C4D000010B50446064B03F107
:1018000008023433026040F8043FFFF761FF2046CE
:1018100000F0CAF8204610BD4C4D000038B500233A
:10182000036043600A7804462F2A01D0204638BD61
:101830004A78002AFAD0481C20604D782F2D13D00A
:1018400085B1034600E06AB15D1A013323601A785E
:101850002F2AF8D1294601332360FFF781FF60600A
:10186000204638BD2946F8E719460346F3E700BF8E
:1018700000687047436843B110B504461846FFF747
:1018800089FF012803D1606810BD00207047002047
:1018900010BD00BF406830B108B5FFF77BFFB0FA5C
:1018A00080F0400908BD704743684BB110B504464D
:1018B0001846FFF76FFF28B9606818B1043810BDEB
:1018C00000207047002010BD4068003018BF012084
:1018D000704700BF38B50446044B002505604360DF
:1018E000FFF7E8F8024B20461C6038BDA0860100D7
:1018F0002803001010B504464160FFF735F9014B8D
:101900001C6010BD280300102DE9F0430E4F8846DF
:10191000396883B08842044691461E469DF8285097
:1019200003D04168FFF720F93C6085F00105009580
:101930004A46414620463346FFF7C8F9301A18BFD9
:10194000012003B0BDE8F083280300102DE9F04327
:101950000E4F8846396883B08842044691461E4639
:101960009DF8285003D04168FFF7FEF83C6085F0F1
:10197000010500954A46414620463346FFF700F9E7
:10198000301A18BF012003B0BDE8F083280300100F
:10199000024A03490348FFF773BD00BF03C0092093
:1019A00002C0092034040010074A084B10B402603A
:1019B00003F58071002453F8042F904208BF1C6087
:1019C0008B42F8D110BC7047A84D000028030010CE
:1019D000F0B50E4685B03749054602F0DAF928B968
:1019E000354B1B68002B42D005B0F0BD334928466B
:1019F00002F0CFF930B9304B1B68002B42D00120E8
:101A000005B0F0BD2E49284602F0C3F9002834D0B5
:101A10002C4B002402E00134402C3CD053F8042F1E
:101A2000002AF8D12B783A2B3CD0294602A8FFF7A0
:101A3000F5FE02A8FFF748FF68B302A8FFF72AFFE8
:101A400020BB02A8FFF716FF054620B3036802A8D3
:101A50009F68FFF70DFF324601462846B847034608
:101A6000CBB1194AE01C42F8243005B0F0BD01901A
:101A7000FFF78EFF019805B0F0BD0F4B1B686BB1EF
:101A80000220B1E7FFF784FF0120ADE702A8FFF7CE
:101A90000BFF0346E4E74FF0FF30A5E7FFF778FFC1
:101AA0000220A1E7284602AA084902F003F9029B96
:101AB000D6E700BF884D000038020010984D0000A6
:101AC000904D0000280300102C030010CC4D0000A6
:101AD00002280ADD074AC31E52F82300002142F8FB
:101AE000231020B103685B681847002070474FF04F
:101AF000FF3070472C030010022812DC0E4B70B52B
:101B00001B680C4616460BB9FFF742FFA51936B104
:101B100014F8011B0948FFF705FCAC42F8D1304628
:101B200070BD074B033853F8200010B103681B68E1
:101B300018474FF0FF30704738020010340400108F
:101B40002C03001002280DDC0C4B10B51B680C4652
:101B50000BB9FFF71DFF0A48FFF79CFB012320701C
:101B6000184610BD074B033853F8200010B1036826
:101B70009B6818474FF0FF33184670473802001033
:101B8000340400102C030010022807DD064B033834
:101B900053F8200020B10368DB6818470120704724
:101BA0004FF0FF30704700BF2C030010022807DD04
:101BB000064B033853F8200020B103681B6918470F
:101BC000002070474FF0FF30704700BF2C0300101B
:101BD000022808B504D84FF400534B60002008BD1C
:101BE00000F0F2FE092303604FF0FF3008BD00BF94
:101BF000704700BF704700BF08B5FFF7FBFFFFF756
:101C0000F7FFBDE80840FEF7D5BA00BF074A1368E2
:101C10001918EFF30880814202D21846116070470C
:101C2000034B0C221A604FF0FF307047D0000010B9
:101C30003C0400100B4C08B523680546986800F07A
:101C4000E7FF2368D86800F0E3FFFEF7C3FD20B983
:101C500005B9FEE7FEF72EFDFBE7FEF71FFE002DA0
:101C6000F7D0F7E734010010002101F06FBF00BF8B
:101C70004A1C02EB420200EBC202936853B101EB33
:101C80004101C9004218D2681AB10144103110460E
:101C90001847704701EB410300EBC301CB68002BF1
:101CA000F7D0184770B504460B4E0023251D4FF49E
:101CB0001650E06363602846A360E36023626362BA
:101CC000A3632660FFF7DCFB284622460349FFF7A3
:101CD000D1FA204670BD00BFE44D0000711C000029
:101CE0000430FFF7D7BA00BF10B50C460430FFF739
:101CF00019FB204610BD00BFFFF7F2BFA0F1400066
:101D0000FFF7FABFFFF7F0BFA0F14000FFF7FABFFF
:101D100038B504461D46FFF7C5FF294604F14000CB
:101D200000F040F8054B204603F1080103F12002C2
:101D3000543321602264636438BD00BFEC4D000061
:101D4000F8B58E18B1420F460ED005460C4601E09C
:101D5000A64207D02B6814F8011B5B6A28469847F7
:101D60000130F5D1E01BF8BD0C46FBE7F8B58E1845
:101D7000B1420F460ED005460C4603E004F8010BB5
:101D8000A64205D02B6828469B6A9847431CF5D18C
:101D9000E01BF8BD0C46FBE70020704700207047B1
:101DA0000020704710B5044684B0FFF711FD0B4BBF
:101DB000002203F108013C3384E80A00626101A8B3
:101DC0002246074901F052FF064901A801F020F818
:101DD0006061FFF749FF204604B010BD484E000087
:101DE000CC4D00008C4E000010B50446064B4069F7
:101DF00003F108023C3384E80C0000F051FE204659
:101E0000FFF7FAFC204610BD484E00000EB430B576
:101E1000044682B005AB53F8045B4069019300F0BF
:101E2000F7FE29466069019A01F040FB02B0BDE867
:101E3000304003B0704700BF0649074A074B9A423B
:101E4000BEBF51F8040B42F8040BF8E70448804782
:101E50000448004758500000C80000104801001016
:101E60009509000059060000FEE7FEE7FEE7FEE7E1
:101E7000FEE7FEE7FEE7FEE7FEE7FEE70B4601466C
:101E8000184600F093BDFEF707BC000081F000414A
:101E900002E000BF83F0004330B54FEA41044FEA4F
:101EA000430594EA050F08BF90EA020F1FBF54EAEA
:101EB000000C55EA020C7FEA645C7FEA655C00F086
:101EC000E2804FEA5454D4EB5555B8BF6D420CDD57
:101ED0002C4480EA020281EA030382EA000083EADA
:101EE000010180EA020281EA0303362D88BF30BD7A
:101EF00011F0004F4FEA01314FF4801C4CEA1131D0
:101F000002D0404261EB410113F0004F4FEA03332E
:101F10004CEA133302D0524263EB430394EA050FB9
:101F200000F0A780A4F10104D5F1200E0DDB02FA28
:101F30000EFC22FA05F2801841F1000103FA0EF2BC
:101F4000801843FA05F359410EE0A5F120050EF182
:101F5000200E012A03FA0EFC28BF4CF0020C43FAB3
:101F600005F3C01851EBE37101F0004507D54FF0C0
:101F7000000EDCF1000C7EEB00006EEB0101B1F510
:101F8000801F1BD3B1F5001F0CD349085FEA300056
:101F90004FEA3C0C04F101044FEA445212F5800F61
:101FA00080F09A80BCF1004F08BF5FEA500C50F1FE
:101FB000000041EB045141EA050130BD5FEA4C0CE1
:101FC000404141EB010111F4801FA4F10104E9D16A
:101FD00091F0000F04BF01460020B1FA81F308BF61
:101FE0002033A3F10B03B3F120020CDA0C3208DD2D
:101FF00002F1140CC2F10C0201FA0CF021FA02F108
:102000000CE002F11402D8BFC2F1200C01FA02F177
:1020100020FA0CFCDCBF41EA0C019040E41AA2BF9C
:1020200001EB0451294330BD6FEA04041F3C1CDA64
:102030000C340EDC04F11404C4F1200220FA04F084
:1020400001FA02F340EA030021FA04F345EA03012E
:1020500030BDC4F10C04C4F1200220FA02F001FAF0
:1020600004F340EA0300294630BD21FA04F0294672
:1020700030BD94F0000F83F4801306BF81F480110B
:102080000134013D4EE77FEA645C18BF7FEA655C7E
:1020900029D094EA050F08BF90EA020F05D054EA50
:1020A000000C04BF1946104630BD91EA030F1EBF55
:1020B0000021002030BD5FEA545C05D14000494159
:1020C00028BF41F0004130BD14F580043CBF01F54C
:1020D000801130BD01F0004545F0FE4141F4700132
:1020E0004FF0000030BD7FEA645C1ABF194610460D
:1020F0007FEA655C1CBF0B46024650EA013406BF0E
:1021000052EA033591EA030F41F4002130BD00BFCC
:1021100090F0000F04BF0021704730B54FF4806489
:1021200004F132044FF000054FF0000150E700BF0A
:1021300090F0000F04BF0021704730B54FF4806469
:1021400004F1320410F0004548BF40424FF0000156
:102150003EE700BF42004FEAE2014FEA31014FEA99
:1021600002701FBF12F07F4393F07F4F81F06051E8
:10217000704792F0000F14BF93F07F4F704730B557
:102180004FF4607401F0004521F0004120E700BFEA
:1021900050EA010208BF704730B54FF000050AE071
:1021A00050EA010208BF704730B511F0004502D572
:1021B000404261EB41014FF4806404F132045FEA74
:1021C000915C3FF4DCAE4FF003025FEADC0C18BF19
:1021D00003325FEADC0C18BF033202EBDC02C2F10F
:1021E000200300FA03FC20FA02F001FA03FE40EAA1
:1021F0000E0021FA02F11444C1E600BF70B54FF0A1
:10220000FF0C4CF4E06C1CEA11541DBF1CEA135582
:1022100094EA0C0F95EA0C0F00F0DEF82C4481EAEA
:10222000030621EA4C5123EA4C5350EA013518BF0A
:1022300052EA033541F4801143F4801338D0A0FBF7
:1022400002CE4FF00005E1FB02E506F00042E0FBA4
:1022500003E54FF00006E1FB03569CF0000F18BFAA
:102260004EF0010EA4F1FF04B6F5007F64F5407452
:1022700004D25FEA4E0E6D4146EB060642EAC621E5
:1022800041EA55514FEAC52040EA5E504FEACE2E52
:10229000B4F1FD0C88BFBCF5E06F1ED8BEF1004F55
:1022A00008BF5FEA500E50F1000041EB045170BDD1
:1022B00006F0004646EA010140EA020081EA030115
:1022C000B4EB5C04C2BFD4EB0C0541EA045170BD11
:1022D00041F480114FF0000E013C00F3AB8014F18B
:1022E000360FDEBF002001F0004170BDC4F10004D4
:1022F000203C35DA0C341BDC04F11404C4F1200555
:1023000000FA05F320FA04F001FA05F240EA0200AF
:1023100001F0004221F0004110EBD37021FA04F6E5
:1023200042EB06015EEA430E08BF20EAD37070BD9F
:10233000C4F10C04C4F1200500FA04F320FA05F0FE
:1023400001FA04F240EA020001F0004110EBD37000
:1023500041F100015EEA430E08BF20EAD37070BD70
:10236000C4F1200500FA05F24EEA020E20FA04F349
:1023700001FA05F243EA020321FA04F001F00041F8
:1023800021FA04F220EA020000EBD3705EEA430E69
:1023900008BF20EAD37070BD94F0000F0FD101F098
:1023A0000046400041EB010111F4801F08BF013CD1
:1023B000F7D041EA060195F0000F18BF704703F00F
:1023C0000046520043EB030313F4801F08BF013D96
:1023D000F7D043EA0603704794EA0C0F0CEA135552
:1023E00018BF95EA0C0F0CD050EA410618BF52EA0C
:1023F0004306D1D181EA030101F000414FF0000012
:1024000070BD50EA410606BF1046194652EA43061F
:1024100019D094EA0C0F02D150EA013613D195EA93
:102420000C0F05D152EA03361CBF104619460AD1DB
:1024300081EA030101F0004141F0FE4141F47001E5
:102440004FF0000070BD41F0FE4141F4780170BDD5
:1024500070B54FF0FF0C4CF4E06C1CEA11541DBF3A
:102460001CEA135594EA0C0F95EA0C0F00F0A7F83C
:10247000A4EB050481EA030E52EA03354FEA013169
:1024800000F088804FEA03334FF0805545EA13137C
:1024900043EA12634FEA022245EA111545EA106544
:1024A0004FEA00260EF000419D4208BF964244F1DB
:1024B000FD0404F5407402D25B084FEA3202B61AFA
:1024C00065EB03055B084FEA32024FF480104FF4CE
:1024D000002CB6EB020E75EB030E22BFB61A754642
:1024E00040EA0C005B084FEA3202B6EB020E75EBD5
:1024F000030E22BFB61A754640EA5C005B084FEA3D
:102500003202B6EB020E75EB030E22BFB61A754609
:1025100040EA9C005B084FEA3202B6EB020E75EB14
:10252000030E22BFB61A754640EADC0055EA060ED5
:1025300018D04FEA051545EA16754FEA06164FEA18
:10254000C30343EA52734FEAC2025FEA1C1CC0D1C4
:1025500011F4801F0BD141EA00014FF000004FF051
:10256000004CB6E711F4801F04BF01430020B4F112
:10257000FD0C88BFBCF5E06F3FF6AFAEB5EB030CCA
:1025800004BFB6EB020C5FEA500C50F1000041EBC7
:10259000045170BD0EF0004E4EEA113114EB5C0494
:1025A000C2BFD4EB0C0541EA045170BD41F4801167
:1025B0004FF0000E013C90E645EA060E8DE60CEA6F
:1025C000135594EA0C0F08BF95EA0C0F3FF43BAF8C
:1025D00094EA0C0F0AD150EA01347FF434AF95EA43
:1025E0000C0F7FF425AF104619462CE795EA0C0F27
:1025F00006D152EA03353FF4FDAE1046194622E7F4
:1026000050EA410618BF52EA43067FF4C5AE50EACD
:1026100041047FF40DAF52EA43057FF4EBAE12E7BD
:102620004FEA4102B2F1E04324BFB3F5001CDCF1F4
:10263000FE5C0DD901F0004C4FEAC0024CEA50702C
:10264000B2F1004F40EB830008BF20F0010070475B
:1026500011F0804F21D113F13872BCBF01F000405E
:10266000704741F480114FEA5252C2F11802C2F190
:10267000200C10FA0CF320FA02F018BF40F0010011
:102680004FEAC1234FEAD32303FA0CFC40EA0C00C3
:1026900023FA02F34FEA4303CCE77FEA625307D100
:1026A00050EA01331EBF4FF0FE4040F44000704737
:1026B00001F0004040F0FE4040F40000704700BFD1
:1026C0004FF0FF0C1CEAD0521EBF1CEAD15392EA15
:1026D0000C0F93EA0C0F6FD01A4480EA010C4002F1
:1026E00018BF5FEA41211ED04FF0006343EA50104B
:1026F00043EA5111A0FB01310CF00040B1F5000F8D
:102700003EBF490041EAD3715B0040EA010062F13B
:102710007F02FD2A1DD8B3F1004F40EBC25008BF25
:1027200020F00100704790F0000F0CF0004C08BF43
:1027300049024CEA502040EA51207F3AC2BFD2F110
:10274000FF0340EAC250704740F400004FF000031E
:10275000013A5DDC12F1190FDCBF00F00040704758
:10276000C2F10002410021FA02F1C2F1200200FA96
:1027700002FC5FEA310040F1000053EA4C0308BF5D
:1027800020EADC70704792F0000F00F0004C02BFAE
:10279000400010F4000F013AF9D040EA0C0093F029
:1027A000000F01F0004C02BF490011F4000F013B83
:1027B000F9D041EA0C018FE70CEAD15392EA0C0FF1
:1027C00018BF93EA0C0F0AD030F0004C18BF31F05C
:1027D000004CD8D180EA010000F00040704790F032
:1027E000000F17BF90F0004F084691F0000F91F0D6
:1027F000004F14D092EA0C0F01D142020FD193EA9C
:102800000C0F03D14B0218BF084608D180EA010023
:1028100000F0004040F0FE4040F40000704740F0FF
:10282000FE4040F4400070474FF0FF0C1CEAD052CD
:102830001EBF1CEAD15392EA0C0F93EA0C0F69D029
:10284000A2EB030280EA010C49024FEA402037D094
:102850004FF0805343EA111143EA10130CF000408B
:102860008B4238BF5B0042F17D024FF4000C8B427B
:1028700024BF5B1A40EA0C00B3EB510F24BFA3EB5B
:10288000510340EA5C00B3EB910F24BFA3EB91032B
:1028900040EA9C00B3EBD10F24BFA3EBD10340EA85
:1028A000DC001B0118BF5FEA1C1CE0D1FD2A3FF6CB
:1028B00050AF8B4240EBC25008BF20F00100704780
:1028C0000CF0004C4CEA50207F32C2BFD2F1FF0323
:1028D00040EAC250704740F400004FF00003013A54
:1028E00037E792F0000F00F0004C02BF400010F4F8
:1028F000000F013AF9D040EA0C0093F0000F01F00C
:10290000004C02BF490011F4000F013BF9D041EA2D
:102910000C0195E70CEAD15392EA0C0F08D1420260
:102920007FF47DAF93EA0C0F7FF470AF084676E733
:1029300093EA0C0F04D14B023FF44CAF08466EE70C
:1029400030F0004C18BF31F0004CCAD130F00042DA
:102950007FF45CAF31F000437FF43CAF5FE700BF32
:102960004FEA4002B2F1FE4F0FD34FF09E03B3EB9C
:1029700012620DD94FEA002343F0004310F0004FDC
:1029800023FA02F018BF404270474FF00000704732
:1029900012F1610F01D1420205D110F0004008BFD1
:1029A0006FF0004070474FF00000704710B5054CC5
:1029B00013462CB10A4601460220AFF3008010BD39
:1029C000204610BD00000000014B1868704700BF92
:1029D0003401001008B5074B044613B10021AFF3D2
:1029E0000080054B1868836A03B198472046FFF7BB
:1029F00021F900BF00000000F44E000070B505464C
:102A00000C4609B9002070BD18B183690BB900F0FC
:102A100051F9204B9C4201D16C6808E01E4B9C424E
:102A200001D1AC6803E01D4B9C4208BFEC68B4F9CF
:102A30000C30002BE6D02146284600F039F8236BF5
:102A4000064633B1216A284698470028B8BF4FF0A0
:102A5000FF36A3891B0603D52169284600F04AFBEF
:102A6000616B41B104F14403994202D0284600F061
:102A700041FB00236363A16C21B1284600F03AFBBF
:102A80000023A36400F082F90023A38100F07FF902
:102A9000304670BD904E0000B04E0000D04E000099
:102AA000024B01461868FFF7A9BF00BF34010010B0
:102AB0008A892DE9F041054610070C4659D44B6828
:102AC000002B02DC0B6C002B17DDE66AAEB102F4C2
:102AD0008052002392B22F682B600AB1606D15E01E
:102AE000216A01232846B047411C0FD12B686BB1E6
:102AF0001D2B01D0162B03D12F600020BDE8F081E3
:102B0000A38943F04003A381BDE8F081A3895A075C
:102B100005D56368C01A636B0BB1236CC01A002320
:102B20000246E66A216A2846B047431CA38906D1BB
:102B300029681D2939D8204ACA40D60735D5002230
:102B400062602269D904226004D5421C01D12B683D
:102B500003B96065616B2F600029CED004F1440396
:102B6000994202D0284600F0C5FA00206063BDE813
:102B7000F0810F69002FC0D093070E680CBF4B691E
:102B80000023C7EB06080F608B6002E00744C0EB30
:102B90000808B8F1000FB0DD43463A46216A2846DE
:102BA000A66AB0470028F1DCA38943F04003A38163
:102BB0004FF0FF30BDE8F0810100402038B50B69CF
:102BC00005460C46DBB118B183690BB900F072F809
:102BD0000C4B9C4201D16C6808E00B4B9C4201D12C
:102BE000AC6803E0094B9C4208BFEC68B4F90C30B8
:102BF0002BB121462846BDE83840FFF759BF0020D9
:102C000038BD00BF904E0000B04E0000D04E000016
:102C1000014620B9044B0549186800F08FB9044BF0
:102C20001868FFF7CBBF00BFF44E0000BD2B0000BB
:102C300034010010014900F081B900BFBD2B000034
:102C400010B50446002303604360836081814366BE
:102C5000C281036143618361194608225C3000F040
:102C600041FA054B24626362044BA362044BE362A6
:102C7000044B236310BD00BF093D00002F3D000041
:102C8000673D00008B3D000070B568234D1E5D431D
:102C90000E4605F1740100F071FA044640B10021BE
:102CA00080E842000C30A06005F1680200F01AFADA
:102CB000204670BD836910B5044633BB8364C3648A
:102CC0000365124B124A1B688262984204BF0123BB
:102CD000836100F01FF86060204600F01BF8A060E0
:102CE000204600F017F80022E06004216068FFF73A
:102CF000A7FF01220921A068FFF7A2FF02221221EB
:102D0000E068FFF79DFF0123A36110BDF44E0000B2
:102D1000352C0000F8B51C4B07461E68B36913B983
:102D20003046FFF7C7FF4836B4687368013B04D4E8
:102D3000B4F90C507DB16834F8E733680BB13668EC
:102D4000F2E704213846FFF79FFF30600028F6D1F4
:102D50000C233B60F8BD4FF6FF73E3810123A38191
:102D600065662560A560656025616561A5610822CD
:102D7000294604F15C0000F0B5F96563A563A5641C
:102D8000E5642046F8BD00BFF44E00007047704770
:102D9000F7B50F46114601AA054601F041FA06466D
:102DA00008B9002029E02846FFF7B4FF04460028B0
:102DB000F7D04FF4DB73019A3946284600F074FED1
:102DC000002806DA0025FFF7E1FFA581FFF7DFFF06
:102DD000E7E70B4BE08163620A4BA681A3620A4BD3
:102DE0002462E362094B2363F30505D50223002225
:102DF0002146284600F014F8204603B0F0BD00BF7D
:102E0000093D00002F3D0000673D00008B3D0000A4
:102E1000024B0A4601461868FFF7BABF340100109A
:102E200000F000B82DE9F8430C4690461E460546D2
:102E300018B183690BB9FFF73DFF3D4B9C4201D1AF
:102E40006C6808E03B4B9C4201D1AC6803E03A4B14
:102E50009C4208BFEC68A38903F48473B3F5847FB4
:102E600003D121462846FFF7A9FEE76A0FB91D23C3
:102E70002BE0012E04D0022E2BD056B3162324E0D3
:102E800021462846FFF79AFEA28902F4805292B2A8
:102E90000AB1606D05E0216A33462846B847411CF7
:102EA00014D0A3895A0706D56368C01A636B4BB167
:102EB000236CC01A06E01B0704D5236813B12269EE
:102EC0009B1A18448044002603E02B604FF0FF3922
:102ED0002BE023691BB92146284600F073F82146F0
:102EE0002846FFF76BFE81460028EFD13346424665
:102EF000216A2846B8470130E8D0616B41B104F13E
:102F00004403994202D0284600F0F4F8002363639A
:102F1000236900212360A389616023F40263A381F4
:102F2000082204F15C0000F0DDF84846BDE8F883B3
:102F3000904E0000B04E0000D04E00002DE9F84346
:102F40008046894600F14804002694B1A568676868
:102F5000013F0CD4AB89012B07D9B5F90E300133F1
:102F600003D029464046C84706436835F0E7246841
:102F7000EBE73046BDE8F8830E4B70B51E460E4CAD
:102F80000025E41AA410A54204D056F8253098472D
:102F90000135F8E701F0EAFC084B094C1E46E41A3B
:102FA000A4100025A54204D056F8253098470135D5
:102FB000F8E770BD3C0100103C0100103C0100101E
:102FC00044010010F0B58B8991B09D0706460C4670
:102FD00025D4B1F90E10002908DAA389002513F0D1
:102FE000800F14BF40274FF480670DE001AA01F065
:102FF0004FF90028F1DB029D4FF4806705F470451E
:10300000A5F500514D424D413946304600F0B6F825
:1030100060B9A3899A051DD443F00203A38104F18A
:103020004703236023610123636113E00A4BB3620A
:10303000A389206043F08003A381206167614DB1C3
:10304000B4F90E10304601F035F918B1A38943F0F8
:103050000103A38111B0F0BD352C0000024B0146E5
:10306000186800F08BB800BF34010010024B014615
:10307000186800F03FB800BF3401001010B5C9B2A5
:1030800002449042034605D01C7801308C42F8D1AE
:10309000184610BD002010BD10B5431E0A449142D1
:1030A00004D011F8014B03F8014FF8E710BD884236
:1030B00010B501EB020301D8421E0BE09842FBD28F
:1030C0008118D21AD34204D013F8014D01F8014DF2
:1030D000F8E710BD994204D011F8014B02F8014FF6
:1030E000F8E710BD03460244934202D003F8011BE7
:1030F000FAE7704730B500293CD051F8042C0B1F7B
:103100001D49002AB8BF9B180A680C4612B95A60BC
:103110000B6030BD9A420DD919685818824201BF20
:1031200010685268091819605A60236030BD9942CE
:1031300003D80A4651680029F9D1146815199D422F
:103140000AD11B682344D0188142136012D1086849
:10315000034413604B680CE002D90C23036030BDBC
:1031600018681C18A14201BF0C6849680019186052
:103170005960536030BD00BF3004001070B5CD1CE5
:1031800025F0030508350C2D38BF0C25002D06460B
:1031900003DA0C233360002070BDA942F9D81F4B1D
:1031A0001C681A462146A1B10B685B1B0ED40B2B81
:1031B00003D90B60CC18CD501EE08C420BBF636866
:1031C0004B681360636018BF0C4615E00C464968F5
:1031D000E9E7134C23681BB9304600F077FC206008
:1031E0002946304600F072FC431CD2D0C41C24F0A7
:1031F0000304A0420AD1256004F10B00231D20F036
:103200000700C31A09D05A42E25070BD211A304655
:1032100000F05CFC0130EED1BBE770BD3004001063
:103220002C040010936810B4013B002B936008DA63
:103230009469A34202DBCBB20A2B02D110BC00F08E
:103240000DBF1368581C10601970C8B210BC7047CD
:10325000F8B506460F461446D518AC4208D03A4693
:1032600014F8011B3046FFF7DDFF431CF5D100E0E9
:103270000020F8BD2DE9F04F9DB00C461746039392
:10328000064618B183690BB9FFF714FD7F4B9C42CA
:1032900001D1746808E07E4B9C4201D1B46803E020
:1032A0007C4B9C4208BFF468A38918070CD523699E
:1032B00053B10023099320238DF8293030238DF852
:1032C0002A30DFF8D4B144E02146304600F02CFF2C
:1032D0000028EED04FF0FF30D5E0039A111D1268A0
:1032E0000391002A80F28C80524243F00200079240
:1032F000049098F800302E2B00F08480032298F878
:1033000000106548FFF7BAFE48B14023CBEB000040
:1033100003FA00F0049B08F101081843049098F8A0
:10332000001006225D4808F101078DF82810FFF70C
:10333000A5FE002800F09580594B002B40F08880B6
:10334000039B073323F0070308330393099B53447C
:103350000993B846454615F8013B1BB9B8EB070978
:103360000FD003E0252BF9D0A846F3E74B463A46A9
:1033700021463046FFF76CFF01307FD0099B4B445C
:10338000099398F80030002B78D000234FF0FF32DB
:1033900004930793059206938DF853301A930127EF
:1033A000052229783F48FFF769FE05F10108049BD3
:1033B00038B13C4A4546801A07FA00F01843049099
:1033C000EEE7D90644BF20228DF853201A0744BFE8
:1033D0002B228DF853202A782A2A3FF47EAF079AB1
:1033E00000210A20A84698F800300135303B092B0F
:1033F00003D800FB02320121F4E700293FF479AF42
:10340000079276E798F801302A2B0BD1039B08F13D
:1034100002081A1D1B680392002BB8BF4FF0FF3340
:1034200005936BE700231946059308F101000A256F
:10343000804698F800200130303A092A03D805FB6D
:1034400001210123F4E7002B3FF458AF059155E724
:1034500003AB00932246144B04A93046AFF300801F
:1034600007E003AB009322460F4B04A9304600F05F
:103470009DF8B0F1FF3F82467FF468AFA3895B06F9
:103480003FF528AF09981DB0BDE8F08F904E0000C1
:10349000B04E0000D04E0000FE4E0000024F000073
:1034A00000000000F84E00005132000013460A46AA
:1034B000014602480068FFF7DDBE00BF340100107E
:1034C0002DE9F04791461F460A698B6806469342EC
:1034D000B8BF1346C9F8003091F843200C46DDF818
:1034E000208012B10133C9F800302368990642BF29
:1034F000D9F800300233C9F80030256815F0060508
:1035000010D104F1190A07E001235246394630462A
:10351000C04701301AD00135E368D9F800209B1A62
:103520009D42F1DB94F843302268003318BF012339
:1035300092060FD5E118302081F843005A1C94F808
:1035400045102244023382F8431003E04FF0FF306D
:10355000BDE8F08704F1430239463046C0470130E8
:10356000F4D02268D9F80050E36802F00602042A79
:1035700008BF5D1B2269A3680CBF25EAE57500251D
:103580009342C4BF9B1AED184FF000091A344D4501
:1035900009D00123224639463046C0470130D5D0F4
:1035A00009F10109F3E70020BDE8F0872DE9F043B8
:1035B00017460A7E85B06E2A984606460C460C9B36
:1035C00001F1430E00F0AE8011D8632A22D009D851
:1035D000002A00F0BB80582A40F0CA8081F84520BC
:1035E000834955E0642A1ED0692A1CD0C0E0732AA2
:1035F00000F0B08009D86F2A2ED0702A40F0B88031
:103600000A6842F020020A603EE0752A24D0782A37
:103610003AD0ADE01A6801F14205111D1960136836
:1036200084F84230A8E021681A6811F0800F02D0B7
:10363000111D196008E011F0400F02F1040119603A
:1036400002D0B2F9003000E01368002B3CDA2D22E2
:103650005B4284F8432037E021681A6811F0800F3C
:1036600002D0111D196007E011F0400F02F10401B2
:10367000196001D0138800E01368227E5C496F2A2C
:1036800014BF0A2208221BE078225A4984F84520F8
:103690002268186812F0800F00F104051D6003D144
:1036A000550601D5038800E00368D00744BF42F007
:1036B000200222601BB9226822F020022260102220
:1036C000002084F8430001E049490A226568002D82
:1036D000A56008DB206820F0040020602BB9002DD5
:1036E0007DD175460CE0002B79D07546B3FBF2F026
:1036F00002FB1033CB5C05F8013D03460028F5D1F1
:10370000082A0BD12368DA0708D5236962689A4230
:10371000DEBF302305F8013C05F1FF35C5EB0E0394
:1037200023612EE008681A6810F0800F496903D001
:10373000101D1860136808E010F0400F02F104003B
:103740001860136801D0198000E01960002323611C
:10375000754616E01A68111D196015680021626827
:103760002846FFF78BFC08B1401B6060636804E0EB
:1037700004F1420584F8422001232361002384F8E8
:103780004330CDF800803B4603AA21463046FFF780
:1037900097FE013002D14FF0FF3026E023692A4620
:1037A00039463046C0470130F5D023689B0710D515
:1037B000002504F1190907E001234A46394630463D
:1037C000C0470130E7D00135E368039A9B1A9D4258
:1037D000F2DBE068039B9842B8BF184605E00B781F
:1037E00004F1420584F842308AE705B0BDE8F08371
:1037F000094F00001A4F00002DE9F84315468A686A
:1038000080460C4632B98A69002A0CBF01224FF06B
:10381000FF328A602268DFF8A890D10658BF1A6884
:103820004FF000065EBF111D19601768A069F8B956
:1038300023680136DA065EBF2B681B783B702A6866
:103840006B6802F101022A60A26803F1FF3302F102
:10385000FF326B6058BF0137A260E2B1002BE5DC9C
:10386000D4F880312946404698470028DED012E03F
:10387000012806D12B681A7863699B5C002BD7D18D
:1038800019E0022807D12B68D9F800201B781344CF
:103890005B781B07CCD5236813F0100305D1E268D1
:1038A0000132E260A26902B13B70236900201E442C
:1038B0002661BDE8F883002EEDD1BDE8F88300BF96
:1038C000380100102DE9F04F0C469A46724B87B034
:1038D0008346164693E8070003ABA76883E8070012
:1038E0006E4BA1696E4A04F11C09032918BF1A46E0
:1038F0007B1EB3F5AE7F84BF40F25D13A3602368E7
:1039000088BF6FF4AE7543F4506323604B4600925A
:103910008CBF7F1900274FF000083168019303AB7B
:1039200053F8280002220978FFF7A8FB019B002822
:1039300033D0B8F1010F0BD162682AB90822626056
:10394000226842F400722260226822F4A0620CE035
:10395000B8F1020F0AD1226802F4C061B1F5007F0C
:103960001BD11021616042F480722260A268511E56
:10397000A16092B132685D1C511C316012781A70DE
:103980007368013B002B736006DCD4F8803131464C
:1039900058469847002841D12B4608F10108B8F154
:1039A000030FBAD162680AB90A22626062683D49AF
:1039B0006069891A019300F099F8019B4FF00008A3
:1039C0001D46A36863B3316860690A78805C38B3C8
:1039D000302A226808D1100506D508F1010857B130
:1039E0000133013FA36006E022F4106222600B78ED
:1039F000013505F8013C7368013B002B736003DD62
:103A000033680133336005E0D4F8803131465846DD
:103A1000984728B9A368013BA360D2E74FF000089C
:103A20002368D9050CD54D4508D915F8011C6F1E22
:103A3000D4F87C313246584698473D464D4527D00C
:103A4000226812F010021BD12A706368494658465A
:103A5000009EB0472268DAF8003012F0200F07D13C
:103A6000D20705D51A1DCAF800201B68188004E08B
:103A70001A1DCAF800201B681860E3680133E36070
:103A80002369C9EB050545441D442561002000E07C
:103A9000012007B0BDE8F08F2C4F0000ED3E000084
:103AA000E13D0000484F000038B5074C0546084688
:103AB0001146002222601A46FDF78AFF431C02D1FC
:103AC000236803B12B6038BD3C04001038B5064CA8
:103AD0000023054608462360FEF798F8431C02D1F0
:103AE000236803B12B6038BD3C04001070B50B781F
:103AF000441E5E2B13BF4A1C8A1C4B78002108BF52
:103B0000012100F1FF0504F8011FAC42FBD10BB904
:103B1000501E70BD81F001041146C4540D784A1C3A
:103B20002D2D06D05D2D0FD00DB12B46F4E70846A4
:103B300070BD4E785D2EF8D0B342F6DC0231013311
:103B40009E42C454FBDCE9E7104670BD00294FF4E7
:103B500080630CBF0222002200F000B82DE9F04182
:103B60001D463D4B04461E680F46904626B1B3697C
:103B700013B93046FFF79EF8384B9C4201D1746868
:103B800008E0374B9C4201D1B46803E0354B9C42BE
:103B900008BFF468B8F1020F59D8002D57DB214651
:103BA0003046FFF70BF800236360A361A3891B066F
:103BB00003D521693046FFF79DFAA389B8F1020FBA
:103BC00023F08303A38112D037BB002D08BF4FF42D
:103BD00080652846FCF75AFD0746C8B94FF4806057
:103BE000FCF754FD074688B94FF0FF3000E0002095
:103BF000A38943F00203A3810023A36004F14703D8
:103C00002360236101236361BDE8F0814FF4806587
:103C1000A38943F08003A381B8F1010F05D1A389E3
:103C200043F00103A3816B42A3610F4BB362A389ED
:103C3000276003F0080080B22761656148B113F086
:103C4000030F18BF0025A5600020BDE8F0814FF0EC
:103C5000FF30BDE8F08100BF34010010904E00003D
:103C6000B04E0000D04E0000352C00000EB400B560
:103C70004FF402719CB0ADF814106FF00041049144
:103C800007914FF6FF711DAB02900690084853F85C
:103C9000042BADF81610006802A9019300F0ACFBEC
:103CA000029B00221A701CB05DF804EB03B0704751
:103CB000340100100EB430B59CB01FAC4FF401724B
:103CC00054F8045BADF814200290069000F06BF8F5
:103CD0000B4B03900B9300230F9314934FF6FF733A
:103CE00007900848ADF816302A46234602A9006816
:103CF000019400F0D1FC1CB0BDE8304003B0704727
:103D00002B3D00003401001010B50C46B1F90E1027
:103D100000F010FE0028ABBF636DA3891B1823F4CD
:103D20008053ACBF6365A38110BD002070472DE9AF
:103D3000F0411F468B890546DB050C46164605D526
:103D400002230022B1F90E1000F0C4FAA389324612
:103D500023F48053A381B4F90E103B462846BDE8F6
:103D6000F04100F0CFB910B50C46B1F90E1000F0DB
:103D7000B1FA431CA38915BF606523F4805343F453
:103D80008053A38118BFA38110BDB1F90E1000F0BC
:103D900037BA10F8012B11F8013B012A28BF9A42CB
:103DA000F7D0D01A7047034613F8012B002AFBD135
:103DB000181A0138704730B582B1451E013915F81F
:103DC000013F11F8014FA34206D1EC431444E042F5
:103DD00001D0002BF3D11C46181B30BD104630BD5E
:103DE0002DE9F0470F4680463F48D0F800903D4609
:103DF00015F8014B09EB0400407800F0080000F0D2
:103E0000FF0608B12F46F2E72D2C03D1BD1C7C78AC
:103E1000012603E02B2C04BF7C78BD1C13B1102BB2
:103E20000AD15BE0302C57D1287800F0DF00582809
:103E30004DD16C7810230235002E14BF4FF0004C8A
:103E40006FF0004CBCFBF3FA0027384603FB1ACC9A
:103E500009EB040E9EF801E01EF0040F01D0303C87
:103E60000BE01EF0030E1BD0BEF1010F0CBF4FF094
:103E7000370E4FF0570ECEEB0404A34210DDB7F11E
:103E8000FF3F0AD0504506D801D1644503DC03FB4F
:103E90000040012701E04FF0FF3715F8014BD7E74D
:103EA0007B1C0CD1002E4FF0220314BF4FF00040BA
:103EB0006FF00040C8F800302AB9BDE8F08706B1BD
:103EC000404272B107B1691E1160BDE8F08730242D
:103ED000002BB1D10823AFE70A23ADE7302CA3D0E4
:103EE000AAE7BDE8F08700BF380100102DE9F047D0
:103EF0000E4680463B48D0F80090354615F8014BF9
:103F000009EB0400407800F0080000F0FF0708B15A
:103F10002E46F2E72D2C03D1B51C7478012703E05F
:103F20002B2C04BF7478B51C13B1102B0AD153E0AD
:103F3000302C4FD1287800F0DF00582845D16C781C
:103F4000102302354FF0FF3CBCFBF3FC03FB0CFAE3
:103F500000266FEA0A0A304609EB040E9EF801E0DB
:103F60001EF0040F01D0303C0BE01EF0030E1AD0FF
:103F7000BEF1010F0CBF4FF0370E4FF0570ECEEBD6
:103F80000404A3420FDD002E08DB604506D801D1F2
:103F9000544503DC03FB0040012601E04FF0FF36EF
:103FA00015F8014BD8E7002E07DA2223C8F80030B5
:103FB0004FF0FF302AB9BDE8F08707B1404272B137
:103FC00006B1691E1160BDE8F0873024002BB9D11D
:103FD0000823B7E70A23B5E7302CABD0B2E7BDE83A
:103FE000F08700BF380100102DE9F0410C46496B05
:103FF00004F1440399421AD14FF48061FFF7BEF8EF
:1040000018B94FF0FF30BDE8F0814FF48063A3632F
:1040100094F84630606380F8FF3394F8453000F23E
:10402000FD30437094F844300370206012E0A66BBA
:1040300077003A4600F060F905460028E1D000EB31
:104040000608014632464046FFF726F8C4F80080CD
:104050006563A7630020BDE8F0810000F8B50F4656
:104060001446064618B183690BB9FEF723FE224BAE
:104070009C4201D1746808E0204B9C4201D1B46895
:1040800003E01F4B9C4208BFF468A369A360A389A7
:104090001A0709D523693BB123682069FDB2181AB4
:1040A000636998420FDB08E02146304600F03CF897
:1040B0000028F1D04FF0FF30F8BD21463046FEF722
:1040C0007DFD0028F6D1A368013BA36023685A1C3C
:1040D00022601F706269431C934204D0A389DB07EE
:1040E00007D50A2D05D121463046FEF767FD002889
:1040F000E0D12846F8BD00BF904E0000B04E000051
:10410000D04E000038B5074C05460846114600223F
:1041100022601A46FDF7F0FC431C02D1236803B16C
:104120002B6038BD3C040010314B70B51D6806464D
:104130000C4625B1AB6913B92846FEF7BBFD2D4BE4
:104140009C4201D16C6808E02B4B9C4201D1AC68C9
:1041500003E02A4B9C4208BFEC68A3899AB211077E
:104160001DD4D50602D40922326038E0500712D59A
:10417000616B41B104F14403994202D03046FEF72D
:10418000B9FF00236363A38923F02403A3810023E1
:10419000636023692360A38943F00803A381236933
:1041A0004BB9A38903F42073B3F5007F03D02146F4
:1041B0003046FEF707FFA38913F0010205D0002265
:1041C000A26062695242A26103E0990758BF626926
:1041D000A26022694AB903F0800080B230B143F096
:1041E0004003A3814FF0FF3070BD002070BD00BFC1
:1041F00034010010904E0000B04E0000D04E000080
:1042000038B5064C0023054608462360FDF760FCE0
:10421000431C02D1236803B12B6038BD3C0400105D
:104220000B7830B5722B0ED0772B07D0612B0ED1C7
:104230004FF4027401234FF484701AE04FF4C06409
:104240000123082015E000242346042011E0162352
:104250000360002030BD622D10D0782D11D02B2DA1
:1042600007D120F01C0023F0030340F0100043F0BE
:10427000020311F8015F002DEDD105E043F4803316
:10428000F7E743F40063F4E72343136030BD000015
:1042900038B5074C00230546084611462360FDF754
:1042A00097FC431C02D1236803B12B6038BD00BFCB
:1042B0003C04001038B5064C002305460846236030
:1042C000FCF7DEF9431C02D1236803B12B6038BD33
:1042D0003C04001038B5074C05460846114600223C
:1042E00022601A46FDF762FC431C02D1236803B129
:1042F0002B6038BD3C040010F8B5074615460E4645
:1043000021B91146BDE8F840FEF738BF1AB9FEF7EB
:10431000F1FE2846F8BD00F01FFB85420ED9294664
:104320003846FEF72BFF044650B131462A46FEF7C9
:10433000B3FE31463846FEF7DDFE01E03046F8BDFB
:104340002046F8BD2DE9F0478E6882469E420C4615
:10435000914698463ED88A8912F4906F3AD02568E3
:10436000096902236F1A656905EB450595FBF3F5AD
:104370007B1C43449D4238BF1D4653050FD529463B
:10438000FEF7FCFE064698B13A462169FEF784FE28
:10439000A38923F4906343F08003A38113E02A46AA
:1043A000FFF7AAFF064670B921695046FEF7A2FE44
:1043B0000C23CAF80030A3894FF0FF3043F04003CC
:1043C000A381BDE8F08726613E44266046466561CC
:1043D000ED1BA560464528BF464649463246206843
:1043E000FEF765FEA36800209B1BA36023681E44A4
:1043F0002660BDE8F08700002DE9F04F9DB00393E3
:104400008B8980461C060D4616460DD50B695BB997
:104410004021FEF7B3FE2860286118B90C23C8F8C4
:104420000030CDE040236B610023099320238DF8F9
:104430002930DFF89CB130238DF82A3037463C46CE
:1044400014F8013B1BB9B7EB060910D003E0252B8C
:10445000F9D02746F3E74B46324629464046FFF758
:1044600071FF013000F0A780099B4B4409933B7812
:10447000002B00F0A08000234FF0FF32049307933D
:10448000059206938DF853301A9301260522217860
:104490004E48FEF7F3FD671C049B38B14B4A3C467F
:1044A000801A06FA00F018430490EFE7D90644BFDB
:1044B00020228DF853201A0744BF2B228DF8532059
:1044C00022782A2A03D0079A00210A200BE0039AB7
:1044D000111D12680391002A10DA524243F00200C3
:1044E000079204900BE027463B780134303B092BC0
:1044F00003D800FB02320121F5E701B107923B78B6
:104500002E2B1ED17B782A2B0AD1039B02371A1D32
:104510001B680392002BB8BF4FF0FF33059310E0E8
:10452000002319460593781C0A2407463A7801307F
:10453000303A092A03D804FB01210123F5E703B12E
:104540000591032239782248FEF798FD40B14023B7
:10455000CBEB000003FA00F0049B013718430490F2
:10456000397806221B487E1C8DF82810FEF786FD40
:1045700088B1194B33B9039B073323F00703083382
:10458000039314E003AB00932A46144B04A940465E
:10459000AFF3008007E003AB00932A460F4B04A95A
:1045A0004046FFF703F8B0F1FF3F824603D0099B76
:1045B0005344099342E7AB895B0601D4099801E0B3
:1045C0004FF0FF301DB0BDE8F08F00BFF84E000087
:1045D000FE4E0000024F00000000000045430000B6
:1045E0004B1C70B50E46144602D14FF0FF3070BD23
:1045F0009389CDB223F020039381536B526883B12A
:10460000A36B9A4207DA23685A1E226003F8016CF2
:10461000636801331FE02146FFF7E6FC0028F2D073
:10462000E3E72169236851B1994208D213F8011CCC
:104630008D4204D1013B0132236062600CE0E363F0
:1046400004F1440363630323A3632346226403F852
:10465000466F236001236360284670BD10B50C4689
:10466000496B69B104F14403994201D0FEF742FD60
:10467000236C00206063636013B1E36B236010BDA3
:1046800023694FF0FF30236000236360A38943F068
:104690002003A38110BD00002DE9F04FDFF89092B8
:1046A00007460C46CA46ADF5257D01930023469387
:1046B00047939B4B0DF10C08A2939A4BDFF868B21D
:1046C000CDF82081A3931578002D00F02081D9F832
:1046D00000302B445B7803F0080303F0FF01F3B1D3
:1046E0006368002B10DD2368DAF8000019780144B4
:1046F00049780D0710D54799013301314791616819
:10470000236001396160EBE7A39B214638460092A4
:104710009847009A0028E6D0561C3246D3E7252D4C
:1047200002F101064BD14391459153782A2B02BFE8
:104730001023961C43930A2231783546A1F13003A9
:10474000092B06F1010605D8459B02FB0313303BFC
:104750004593F1E703227448FEF790FC40B13546DB
:104760000123CBEB000003FA00F0439B0343439388
:104770006E1C2D78672D0FD8652D78D25B2D54D007
:1047800005D8002D00F0C580252D18D071E0632DCF
:1047900057D0642D3FD06CE0702D32D007D86E2DED
:1047A00055D03AD8692D64D1002344933BE0752D50
:1047B00031D0782D29D0732D5BD102233FE063687F
:1047C000002B0DDD23681A78954240F0A08001335C
:1047D00062682360479B013A0133626047939CE71C
:1047E000A39B2146384698470028EBD046980028DE
:1047F00000F08F80A38913F0400F18BF4FF0FF30F7
:1048000089E0439B43F020034393439B43F40073AD
:104810004393102302E00A2300E008236E2D449303
:1048200001DD04230BE0032309E031464046FFF796
:104830005DF90646439B43F04003439301234993AC
:104840001BE0439B43F0400343930023F7E7439A65
:10485000D0063FF562AF12F0010F019A479B02F1BB
:1048600004010191126814BF1380136055E70523FA
:10487000E5E7032349930A2344936368002B03DD90
:10488000439B590611D518E0A39B2146384698470B
:104890000028F5D0AAE7479A013247926268013AA8
:1048A000002A626013DD013323602368DAF8001008
:1048B0001A780A4452781207EDD4499B022B0DDC7A
:1048C00001AB224643A93846FEF796FF19E0A39BA9
:1048D0002146384698470028E7D087E7042B06DCB6
:1048E00001AB224643A93846FEF7ECFF09E00F4B27
:1048F000002B3FF412AF01AB224643A93846AFF379
:104900000080012803D002287FF407AF6EE74698A5
:1049100001E04FF0FF300DF5257DBDE8F08F00BFC1
:10492000E14500005D460000FE4E00000000000072
:104930003801001038B5074C0546084611460022DC
:1049400022601A46FDF7FEF8431C02D1236803B12A
:104950002B6038BD3C04001051F8040C0028BEBF89
:10496000091851F8043CC01804387047F8B500BF66
:10497000F8BC08BC9E467047F8B500BFF8BC08BC40
:104980009E46704748656C6C6F20576F726C64214F
:1049900000000000507265737375726520203D2021
:1049A00025660A0D0000000054656D70202020204F
:1049B00020203D2025660A0D000000004779726F17
:1049C0002020202020203D2025642C20202025642C
:1049D0002C20202025640A0D00000000537563631D
:1049E0006573733A205265717565737465642074DC
:1049F000656D7020616E6420707265737375726589
:104A0000200A00004661696C6564203A2052657195
:104A10007565737465642074656D7020616E6420C3
:104A200070726573737572652025640A000000005A
:104A3000537563636573733A2053656C65637420C3
:104A400074656D7020616E64207072657373757229
:104A500065207265676973746572200A0000000042
:104A60004661696C6564203A2053656C6563742007
:104A700074656D7020616E642070726573737572F9
:104A8000652072656769737465722025640A000089
:104A9000537563636573733A20526561642074656E
:104AA0006D7020616E64207072657373757265201D
:104AB0007265676973746572200A00004661696CEB
:104AC0006564203A20526561642074656D702061D0
:104AD0006E642070726573737572652072656769A4
:104AE000737465722025640A0000000053756363C7
:104AF0006573733A2043616C63756C6174656420FF
:104B0000507265737375726520436F6D7065736164
:104B100074696F6E2056616C75652025640A00000B
:104B2000636F756C64206E6F742070696E6F75743E
:104B30000000000070696E6D6170206D69732D6DED
:104B4000617463680000000070696E6D6170206EB2
:104B50006F7420666F756E6420666F722070657268
:104B60006970686572616C0070696E6D6170206E4D
:104B70006F7420666F756E6420666F722066756E46
:104B80006374696F6E0000007516000085160000E2
:104B9000B5160000C5160000A1160000884B0000E5
:104BA0003002001000C0092000C0054003000000D2
:104BB0000AC0092000000A400200000013C00920BA
:104BC00000C00540030000001BC0092000C00140D8
:104BD00001000000FFFFFFFFFFFFFFFF00000000DC
:104BE00001C0092000C00540030000000BC00920DF
:104BF00000000A400200000014C0092000C0054067
:104C0000030000001CC0092000C00140010000009A
:104C1000FFFFFFFFFFFFFFFF0000000016C009209D
:104C2000000001400100000047C0092000000140D1
:104C300002000000FFFFFFFFFFFFFFFF000000007A
:104C400001C0092000C009400200000003C0092083
:104C500000C00040010000000BC009200080094096
:104C60000100000010C00920000001400100000008
:104C70001AC0092000C009400300000041C00920FB
:104C8000000001400200000049C0092000800940E6
:104C9000020000009DC0092000C009400300000080
:104CA000FFFFFFFFFFFFFFFF0000000000C0092023
:104CB00000C009400200000002C0092000C00040FE
:104CC000010000000AC00920008009400100000026
:104CD0000FC00920000001400100000019C0092098
:104CE00000C009400300000040C00920000001404E
:104CF0000200000048C009200080094002000000B6
:104D00009CC0092000C0094003000000FFFFFFFF16
:104D1000FFFFFFFF0000000011C00920000001405C
:104D20000100000042C00920000001400200000014
:104D3000FFFFFFFFFFFFFFFF00000000000000007B
:104D400000000000D1160000011700000000000064
:104D500000000000AD060000AD060000AD0600003A
:104D6000AD060000AD060000AD060000991700007A
:104D70000000000000000000FCFFFFFF000000003A
:104D800000000000000000002F737464696E0000D2
:104D90002F737464657272002F7374646F7574007E
:104DA0000000000000000000AD060000AD0600009D
:104DB000AD060000AD060000AD060000AD06000027
:104DC0009917000000000000000000003A25700064
:104DD000457863657074696F6E0000000000000024
:104DE0000000000071010000A901000000000000A7
:104DF000000000007501000039020000F91C0000ED
:104E0000051D0000C0FFFFFF00000000411D000065
:104E10009D1D00006D1D00009D1D0000991D0000DE
:104E20009D1D0000A11D000099010000610200000D
:104E3000091D0000FD1C0000BCFFFFFF000000007A
:104E4000A101000069020000000000000000000055
:104E5000411D00009D1D00006D1D00009D1D0000F6
:104E6000991D00009D1D0000A11D00000000000014
:104E700000000000AD060000AD060000FCFFFFFFD3
:104E8000000000000000000000000000772B000080
:104E90000000000000000000000000000000000012
:104EA0000000000000000000000000000000000002
:104EB00000000000000000000000000000000000F2
:104EC00000000000000000000000000000000000E2
:104ED00000000000000000000000000000000000D2
:104EE00000000000000000000000000000000000C2
:104EF00043000000D4000010232D302B2000686CEC
:104F00004C006566674546470030313233343536EC
:104F10003738394142434445460030313233343525
:104F20003637383961626364656600004A4F0000B5
:104F30004D4F0000504F0000412D46612D6638391D
:104F400030313233343536375D002B2D00303000B0
:104F500078580000202020202020202020282828E9
:104F60002828202020202020202020202020202031
:104F70002020202088101010101010101010101079
:104F80001010101004040404040404040404101099
:104F90001010101010414141414141010101010136
:104FA00001010101010101010101010101010110E2
:104FB000101010101042424242424202020202020B
:104FC00002020202020202020202020202020210B3
:104FD0001010102000000000000000000000000081
:104FE00000000000000000000000000000000000C1
:104FF00000000000000000000000000000000000B1
:1050000000000000000000000000000000000000A0
:105010000000000000000000000000000000000090
:105020000000000000000000000000000000000080
:105030000000000000000000000000000000000070
:105040000000000000000000000000000000000060
:08505000000000000000000058
:105058000000000000D8B80540040010000000005F
:10506800904E0000B04E0000D04E0000000000003E
:10507800000000000000000000000000F04E0000EA
:105088000000000000000000000000000000000018
:105098000000000000000000000000000000000008
:1050A80000000000000000000000000000000000F8
:1050B800000000000000000000000000D400001004
:1050C800534F000039010000710200001101000077
:0400000300001E39A2
:00000001FF
